{
  "_format": "hh-sol-artifact-1",
  "contractName": "MovieNFTCollection",
  "sourceName": "contracts/MovieNFTCollection.sol",
  "abi": [
    {
      "inputs": [
        {
          "internalType": "string",
          "name": "baseURI",
          "type": "string"
        }
      ],
      "stateMutability": "nonpayable",
      "type": "constructor"
    },
    {
      "inputs": [],
      "name": "ERC721EnumerableForbiddenBatchMint",
      "type": "error"
    },
    {
      "inputs": [
        {
          "internalType": "address",
          "name": "sender",
          "type": "address"
        },
        {
          "internalType": "uint256",
          "name": "tokenId",
          "type": "uint256"
        },
        {
          "internalType": "address",
          "name": "owner",
          "type": "address"
        }
      ],
      "name": "ERC721IncorrectOwner",
      "type": "error"
    },
    {
      "inputs": [
        {
          "internalType": "address",
          "name": "operator",
          "type": "address"
        },
        {
          "internalType": "uint256",
          "name": "tokenId",
          "type": "uint256"
        }
      ],
      "name": "ERC721InsufficientApproval",
      "type": "error"
    },
    {
      "inputs": [
        {
          "internalType": "address",
          "name": "approver",
          "type": "address"
        }
      ],
      "name": "ERC721InvalidApprover",
      "type": "error"
    },
    {
      "inputs": [
        {
          "internalType": "address",
          "name": "operator",
          "type": "address"
        }
      ],
      "name": "ERC721InvalidOperator",
      "type": "error"
    },
    {
      "inputs": [
        {
          "internalType": "address",
          "name": "owner",
          "type": "address"
        }
      ],
      "name": "ERC721InvalidOwner",
      "type": "error"
    },
    {
      "inputs": [
        {
          "internalType": "address",
          "name": "receiver",
          "type": "address"
        }
      ],
      "name": "ERC721InvalidReceiver",
      "type": "error"
    },
    {
      "inputs": [
        {
          "internalType": "address",
          "name": "sender",
          "type": "address"
        }
      ],
      "name": "ERC721InvalidSender",
      "type": "error"
    },
    {
      "inputs": [
        {
          "internalType": "uint256",
          "name": "tokenId",
          "type": "uint256"
        }
      ],
      "name": "ERC721NonexistentToken",
      "type": "error"
    },
    {
      "inputs": [
        {
          "internalType": "address",
          "name": "owner",
          "type": "address"
        },
        {
          "internalType": "uint256",
          "name": "index",
          "type": "uint256"
        }
      ],
      "name": "ERC721OutOfBoundsIndex",
      "type": "error"
    },
    {
      "inputs": [
        {
          "internalType": "address",
          "name": "owner",
          "type": "address"
        }
      ],
      "name": "OwnableInvalidOwner",
      "type": "error"
    },
    {
      "inputs": [
        {
          "internalType": "address",
          "name": "account",
          "type": "address"
        }
      ],
      "name": "OwnableUnauthorizedAccount",
      "type": "error"
    },
    {
      "anonymous": false,
      "inputs": [
        {
          "indexed": true,
          "internalType": "address",
          "name": "owner",
          "type": "address"
        },
        {
          "indexed": true,
          "internalType": "address",
          "name": "approved",
          "type": "address"
        },
        {
          "indexed": true,
          "internalType": "uint256",
          "name": "tokenId",
          "type": "uint256"
        }
      ],
      "name": "Approval",
      "type": "event"
    },
    {
      "anonymous": false,
      "inputs": [
        {
          "indexed": true,
          "internalType": "address",
          "name": "owner",
          "type": "address"
        },
        {
          "indexed": true,
          "internalType": "address",
          "name": "operator",
          "type": "address"
        },
        {
          "indexed": false,
          "internalType": "bool",
          "name": "approved",
          "type": "bool"
        }
      ],
      "name": "ApprovalForAll",
      "type": "event"
    },
    {
      "anonymous": false,
      "inputs": [
        {
          "indexed": true,
          "internalType": "address",
          "name": "previousOwner",
          "type": "address"
        },
        {
          "indexed": true,
          "internalType": "address",
          "name": "newOwner",
          "type": "address"
        }
      ],
      "name": "OwnershipTransferred",
      "type": "event"
    },
    {
      "anonymous": false,
      "inputs": [
        {
          "indexed": true,
          "internalType": "address",
          "name": "from",
          "type": "address"
        },
        {
          "indexed": true,
          "internalType": "address",
          "name": "to",
          "type": "address"
        },
        {
          "indexed": true,
          "internalType": "uint256",
          "name": "tokenId",
          "type": "uint256"
        }
      ],
      "name": "Transfer",
      "type": "event"
    },
    {
      "stateMutability": "payable",
      "type": "fallback"
    },
    {
      "inputs": [
        {
          "internalType": "address",
          "name": "to",
          "type": "address"
        },
        {
          "internalType": "uint256",
          "name": "tokenId",
          "type": "uint256"
        }
      ],
      "name": "approve",
      "outputs": [],
      "stateMutability": "nonpayable",
      "type": "function"
    },
    {
      "inputs": [
        {
          "internalType": "address",
          "name": "owner",
          "type": "address"
        }
      ],
      "name": "balanceOf",
      "outputs": [
        {
          "internalType": "uint256",
          "name": "",
          "type": "uint256"
        }
      ],
      "stateMutability": "view",
      "type": "function"
    },
    {
      "inputs": [],
      "name": "baseTokenURI",
      "outputs": [
        {
          "internalType": "string",
          "name": "",
          "type": "string"
        }
      ],
      "stateMutability": "view",
      "type": "function"
    },
    {
      "inputs": [
        {
          "internalType": "uint256",
          "name": "tokenId",
          "type": "uint256"
        }
      ],
      "name": "getApproved",
      "outputs": [
        {
          "internalType": "address",
          "name": "",
          "type": "address"
        }
      ],
      "stateMutability": "view",
      "type": "function"
    },
    {
      "inputs": [
        {
          "internalType": "address",
          "name": "owner",
          "type": "address"
        },
        {
          "internalType": "address",
          "name": "operator",
          "type": "address"
        }
      ],
      "name": "isApprovedForAll",
      "outputs": [
        {
          "internalType": "bool",
          "name": "",
          "type": "bool"
        }
      ],
      "stateMutability": "view",
      "type": "function"
    },
    {
      "inputs": [],
      "name": "maxNumOfTokenId",
      "outputs": [
        {
          "internalType": "uint256",
          "name": "",
          "type": "uint256"
        }
      ],
      "stateMutability": "view",
      "type": "function"
    },
    {
      "inputs": [],
      "name": "mint",
      "outputs": [],
      "stateMutability": "payable",
      "type": "function"
    },
    {
      "inputs": [],
      "name": "name",
      "outputs": [
        {
          "internalType": "string",
          "name": "",
          "type": "string"
        }
      ],
      "stateMutability": "view",
      "type": "function"
    },
    {
      "inputs": [],
      "name": "owner",
      "outputs": [
        {
          "internalType": "address",
          "name": "",
          "type": "address"
        }
      ],
      "stateMutability": "view",
      "type": "function"
    },
    {
      "inputs": [
        {
          "internalType": "uint256",
          "name": "tokenId",
          "type": "uint256"
        }
      ],
      "name": "ownerOf",
      "outputs": [
        {
          "internalType": "address",
          "name": "",
          "type": "address"
        }
      ],
      "stateMutability": "view",
      "type": "function"
    },
    {
      "inputs": [],
      "name": "paused",
      "outputs": [
        {
          "internalType": "bool",
          "name": "",
          "type": "bool"
        }
      ],
      "stateMutability": "view",
      "type": "function"
    },
    {
      "inputs": [],
      "name": "price",
      "outputs": [
        {
          "internalType": "uint256",
          "name": "",
          "type": "uint256"
        }
      ],
      "stateMutability": "view",
      "type": "function"
    },
    {
      "inputs": [],
      "name": "renounceOwnership",
      "outputs": [],
      "stateMutability": "nonpayable",
      "type": "function"
    },
    {
      "inputs": [
        {
          "internalType": "address",
          "name": "from",
          "type": "address"
        },
        {
          "internalType": "address",
          "name": "to",
          "type": "address"
        },
        {
          "internalType": "uint256",
          "name": "tokenId",
          "type": "uint256"
        }
      ],
      "name": "safeTransferFrom",
      "outputs": [],
      "stateMutability": "nonpayable",
      "type": "function"
    },
    {
      "inputs": [
        {
          "internalType": "address",
          "name": "from",
          "type": "address"
        },
        {
          "internalType": "address",
          "name": "to",
          "type": "address"
        },
        {
          "internalType": "uint256",
          "name": "tokenId",
          "type": "uint256"
        },
        {
          "internalType": "bytes",
          "name": "data",
          "type": "bytes"
        }
      ],
      "name": "safeTransferFrom",
      "outputs": [],
      "stateMutability": "nonpayable",
      "type": "function"
    },
    {
      "inputs": [
        {
          "internalType": "address",
          "name": "operator",
          "type": "address"
        },
        {
          "internalType": "bool",
          "name": "approved",
          "type": "bool"
        }
      ],
      "name": "setApprovalForAll",
      "outputs": [],
      "stateMutability": "nonpayable",
      "type": "function"
    },
    {
      "inputs": [
        {
          "internalType": "bool",
          "name": "_val",
          "type": "bool"
        }
      ],
      "name": "setPaused",
      "outputs": [],
      "stateMutability": "nonpayable",
      "type": "function"
    },
    {
      "inputs": [
        {
          "internalType": "bytes4",
          "name": "interfaceId",
          "type": "bytes4"
        }
      ],
      "name": "supportsInterface",
      "outputs": [
        {
          "internalType": "bool",
          "name": "",
          "type": "bool"
        }
      ],
      "stateMutability": "view",
      "type": "function"
    },
    {
      "inputs": [],
      "name": "symbol",
      "outputs": [
        {
          "internalType": "string",
          "name": "",
          "type": "string"
        }
      ],
      "stateMutability": "view",
      "type": "function"
    },
    {
      "inputs": [
        {
          "internalType": "uint256",
          "name": "index",
          "type": "uint256"
        }
      ],
      "name": "tokenByIndex",
      "outputs": [
        {
          "internalType": "uint256",
          "name": "",
          "type": "uint256"
        }
      ],
      "stateMutability": "view",
      "type": "function"
    },
    {
      "inputs": [],
      "name": "tokenMinted",
      "outputs": [
        {
          "internalType": "uint256",
          "name": "",
          "type": "uint256"
        }
      ],
      "stateMutability": "view",
      "type": "function"
    },
    {
      "inputs": [
        {
          "internalType": "address",
          "name": "owner",
          "type": "address"
        },
        {
          "internalType": "uint256",
          "name": "index",
          "type": "uint256"
        }
      ],
      "name": "tokenOfOwnerByIndex",
      "outputs": [
        {
          "internalType": "uint256",
          "name": "",
          "type": "uint256"
        }
      ],
      "stateMutability": "view",
      "type": "function"
    },
    {
      "inputs": [
        {
          "internalType": "uint256",
          "name": "tokenId",
          "type": "uint256"
        }
      ],
      "name": "tokenURI",
      "outputs": [
        {
          "internalType": "string",
          "name": "",
          "type": "string"
        }
      ],
      "stateMutability": "view",
      "type": "function"
    },
    {
      "inputs": [],
      "name": "totalSupply",
      "outputs": [
        {
          "internalType": "uint256",
          "name": "",
          "type": "uint256"
        }
      ],
      "stateMutability": "view",
      "type": "function"
    },
    {
      "inputs": [
        {
          "internalType": "address",
          "name": "from",
          "type": "address"
        },
        {
          "internalType": "address",
          "name": "to",
          "type": "address"
        },
        {
          "internalType": "uint256",
          "name": "tokenId",
          "type": "uint256"
        }
      ],
      "name": "transferFrom",
      "outputs": [],
      "stateMutability": "nonpayable",
      "type": "function"
    },
    {
      "inputs": [
        {
          "internalType": "address",
          "name": "newOwner",
          "type": "address"
        }
      ],
      "name": "transferOwnership",
      "outputs": [],
      "stateMutability": "nonpayable",
      "type": "function"
    },
    {
      "inputs": [],
      "name": "withdraw",
      "outputs": [],
      "stateMutability": "nonpayable",
      "type": "function"
    },
    {
      "stateMutability": "payable",
      "type": "receive"
    }
  ],
  "bytecode": "0x60806040526000600d553480156200001657600080fd5b50604051620037473803806200374783398181016040528101906200003c9190620003c8565b336040518060400160405280601981526020017f4d6f7669654e6674436f6c6c656374696f6e427942696e6f64000000000000008152506040518060400160405280600781526020017f4d6f766965424a000000000000000000000000000000000000000000000000008152508160009081620000ba919062000664565b508060019081620000cc919062000664565b505050600073ffffffffffffffffffffffffffffffffffffffff168173ffffffffffffffffffffffffffffffffffffffff1603620001445760006040517f1e4fbdf70000000000000000000000000000000000000000000000000000000081526004016200013b919062000790565b60405180910390fd5b62000155816200016f60201b60201c565b5080600b908162000167919062000664565b5050620007ad565b6000600a60009054906101000a900473ffffffffffffffffffffffffffffffffffffffff16905081600a60006101000a81548173ffffffffffffffffffffffffffffffffffffffff021916908373ffffffffffffffffffffffffffffffffffffffff1602179055508173ffffffffffffffffffffffffffffffffffffffff168173ffffffffffffffffffffffffffffffffffffffff167f8be0079c531659141344cd1fd0a4f28419497f9722a3daafe3b4186f6b6457e060405160405180910390a35050565b6000604051905090565b600080fd5b600080fd5b600080fd5b600080fd5b6000601f19601f8301169050919050565b7f4e487b7100000000000000000000000000000000000000000000000000000000600052604160045260246000fd5b6200029e8262000253565b810181811067ffffffffffffffff82111715620002c057620002bf62000264565b5b80604052505050565b6000620002d562000235565b9050620002e3828262000293565b919050565b600067ffffffffffffffff82111562000306576200030562000264565b5b620003118262000253565b9050602081019050919050565b60005b838110156200033e57808201518184015260208101905062000321565b60008484015250505050565b6000620003616200035b84620002e8565b620002c9565b90508281526020810184848401111562000380576200037f6200024e565b5b6200038d8482856200031e565b509392505050565b600082601f830112620003ad57620003ac62000249565b5b8151620003bf8482602086016200034a565b91505092915050565b600060208284031215620003e157620003e06200023f565b5b600082015167ffffffffffffffff81111562000402576200040162000244565b5b620004108482850162000395565b91505092915050565b600081519050919050565b7f4e487b7100000000000000000000000000000000000000000000000000000000600052602260045260246000fd5b600060028204905060018216806200046c57607f821691505b60208210810362000482576200048162000424565b5b50919050565b60008190508160005260206000209050919050565b60006020601f8301049050919050565b600082821b905092915050565b600060088302620004ec7fffffffffffffffffffffffffffffffffffffffffffffffffffffffffffffffff82620004ad565b620004f88683620004ad565b95508019841693508086168417925050509392505050565b6000819050919050565b6000819050919050565b6000620005456200053f620005398462000510565b6200051a565b62000510565b9050919050565b6000819050919050565b620005618362000524565b6200057962000570826200054c565b848454620004ba565b825550505050565b600090565b6200059062000581565b6200059d81848462000556565b505050565b5b81811015620005c557620005b960008262000586565b600181019050620005a3565b5050565b601f8211156200061457620005de8162000488565b620005e9846200049d565b81016020851015620005f9578190505b6200061162000608856200049d565b830182620005a2565b50505b505050565b600082821c905092915050565b6000620006396000198460080262000619565b1980831691505092915050565b600062000654838362000626565b9150826002028217905092915050565b6200066f8262000419565b67ffffffffffffffff8111156200068b576200068a62000264565b5b62000697825462000453565b620006a4828285620005c9565b600060209050601f831160018114620006dc5760008415620006c7578287015190505b620006d3858262000646565b86555062000743565b601f198416620006ec8662000488565b60005b828110156200071657848901518255600182019150602085019450602081019050620006ef565b8683101562000736578489015162000732601f89168262000626565b8355505b6001600288020188555050505b505050505050565b600073ffffffffffffffffffffffffffffffffffffffff82169050919050565b600062000778826200074b565b9050919050565b6200078a816200076b565b82525050565b6000602082019050620007a760008301846200077f565b92915050565b612f8a80620007bd6000396000f3fe6080604052600436106101a05760003560e01c80636352211e116100ec578063a22cb4651161008a578063d547cfb711610064578063d547cfb7146105af578063dcc8154e146105da578063e985e9c514610605578063f2fde38b14610642576101a7565b8063a22cb46514610520578063b88d4fde14610549578063c87b56dd14610572576101a7565b80638da5cb5b116100c65780638da5cb5b1461047457806395d89b411461049f57806396356355146104ca578063a035b1fe146104f5576101a7565b80636352211e146103e357806370a0823114610420578063715018a61461045d576101a7565b806318160ddd116101595780633ccfd60b116101335780633ccfd60b1461033b57806342842e0e146103525780634f6ccce71461037b5780635c975abb146103b8576101a7565b806318160ddd146102aa57806323b872dd146102d55780632f745c59146102fe576101a7565b806301ffc9a7146101a957806306fdde03146101e6578063081812fc14610211578063095ea7b31461024e5780631249c58b1461027757806316c38b3c14610281576101a7565b366101a757005b005b3480156101b557600080fd5b506101d060048036038101906101cb91906124a8565b61066b565b6040516101dd91906124f0565b60405180910390f35b3480156101f257600080fd5b506101fb6106e5565b604051610208919061259b565b60405180910390f35b34801561021d57600080fd5b50610238600480360381019061023391906125f3565b610777565b6040516102459190612661565b60405180910390f35b34801561025a57600080fd5b50610275600480360381019061027091906126a8565b610793565b005b61027f6107a9565b005b34801561028d57600080fd5b506102a860048036038101906102a39190612714565b6108ae565b005b3480156102b657600080fd5b506102bf6108d3565b6040516102cc9190612750565b60405180910390f35b3480156102e157600080fd5b506102fc60048036038101906102f7919061276b565b6108e0565b005b34801561030a57600080fd5b50610325600480360381019061032091906126a8565b6109e2565b6040516103329190612750565b60405180910390f35b34801561034757600080fd5b50610350610a8b565b005b34801561035e57600080fd5b506103796004803603810190610374919061276b565b610b55565b005b34801561038757600080fd5b506103a2600480360381019061039d91906125f3565b610b75565b6040516103af9190612750565b60405180910390f35b3480156103c457600080fd5b506103cd610beb565b6040516103da91906124f0565b60405180910390f35b3480156103ef57600080fd5b5061040a600480360381019061040591906125f3565b610bfe565b6040516104179190612661565b60405180910390f35b34801561042c57600080fd5b50610447600480360381019061044291906127be565b610c10565b6040516104549190612750565b60405180910390f35b34801561046957600080fd5b50610472610cca565b005b34801561048057600080fd5b50610489610cde565b6040516104969190612661565b60405180910390f35b3480156104ab57600080fd5b506104b4610d08565b6040516104c1919061259b565b60405180910390f35b3480156104d657600080fd5b506104df610d9a565b6040516104ec9190612750565b60405180910390f35b34801561050157600080fd5b5061050a610da0565b6040516105179190612750565b60405180910390f35b34801561052c57600080fd5b50610547600480360381019061054291906127eb565b610dab565b005b34801561055557600080fd5b50610570600480360381019061056b9190612960565b610dc1565b005b34801561057e57600080fd5b50610599600480360381019061059491906125f3565b610dde565b6040516105a6919061259b565b60405180910390f35b3480156105bb57600080fd5b506105c4610e47565b6040516105d1919061259b565b60405180910390f35b3480156105e657600080fd5b506105ef610ed5565b6040516105fc9190612750565b60405180910390f35b34801561061157600080fd5b5061062c600480360381019061062791906129e3565b610eda565b60405161063991906124f0565b60405180910390f35b34801561064e57600080fd5b50610669600480360381019061066491906127be565b610f6e565b005b60007f780e9d63000000000000000000000000000000000000000000000000000000007bffffffffffffffffffffffffffffffffffffffffffffffffffffffff1916827bffffffffffffffffffffffffffffffffffffffffffffffffffffffff191614806106de57506106dd82610ff4565b5b9050919050565b6060600080546106f490612a52565b80601f016020809104026020016040519081016040528092919081815260200182805461072090612a52565b801561076d5780601f106107425761010080835404028352916020019161076d565b820191906000526020600020905b81548152906001019060200180831161075057829003601f168201915b5050505050905090565b6000610782826110d6565b5061078c8261115e565b9050919050565b6107a582826107a061119b565b6111a3565b5050565b600c60009054906101000a900460ff16156107f9576040517f08c379a00000000000000000000000000000000000000000000000000000000081526004016107f090612acf565b60405180910390fd5b600f600d541061083e576040517f08c379a000000000000000000000000000000000000000000000000000000000815260040161083590612b3b565b60405180910390fd5b662386f26fc10000341015610888576040517f08c379a000000000000000000000000000000000000000000000000000000000815260040161087f90612ba7565b60405180910390fd5b61089433600d546111b5565b600d60008154809291906108a790612bf6565b9190505550565b6108b66111d3565b80600c60006101000a81548160ff02191690831515021790555050565b6000600880549050905090565b600073ffffffffffffffffffffffffffffffffffffffff168273ffffffffffffffffffffffffffffffffffffffff16036109525760006040517f64a0ae920000000000000000000000000000000000000000000000000000000081526004016109499190612661565b60405180910390fd5b6000610966838361096161119b565b61125a565b90508373ffffffffffffffffffffffffffffffffffffffff168173ffffffffffffffffffffffffffffffffffffffff16146109dc578382826040517f64283d7b0000000000000000000000000000000000000000000000000000000081526004016109d393929190612c3e565b60405180910390fd5b50505050565b60006109ed83610c10565b8210610a325782826040517fa57d13dc000000000000000000000000000000000000000000000000000000008152600401610a29929190612c75565b60405180910390fd5b600660008473ffffffffffffffffffffffffffffffffffffffff1673ffffffffffffffffffffffffffffffffffffffff168152602001908152602001600020600083815260200190815260200160002054905092915050565b610a936111d3565b6000610a9d610cde565b9050600047905060008273ffffffffffffffffffffffffffffffffffffffff1682604051610aca90612ccf565b60006040518083038185875af1925050503d8060008114610b07576040519150601f19603f3d011682016040523d82523d6000602084013e610b0c565b606091505b5050905080610b50576040517f08c379a0000000000000000000000000000000000000000000000000000000008152600401610b4790612d30565b60405180910390fd5b505050565b610b7083838360405180602001604052806000815250610dc1565b505050565b6000610b7f6108d3565b8210610bc5576000826040517fa57d13dc000000000000000000000000000000000000000000000000000000008152600401610bbc929190612c75565b60405180910390fd5b60088281548110610bd957610bd8612d50565b5b90600052602060002001549050919050565b600c60009054906101000a900460ff1681565b6000610c09826110d6565b9050919050565b60008073ffffffffffffffffffffffffffffffffffffffff168273ffffffffffffffffffffffffffffffffffffffff1603610c835760006040517f89c62b64000000000000000000000000000000000000000000000000000000008152600401610c7a9190612661565b60405180910390fd5b600360008373ffffffffffffffffffffffffffffffffffffffff1673ffffffffffffffffffffffffffffffffffffffff168152602001908152602001600020549050919050565b610cd26111d3565b610cdc6000611377565b565b6000600a60009054906101000a900473ffffffffffffffffffffffffffffffffffffffff16905090565b606060018054610d1790612a52565b80601f0160208091040260200160405190810160405280929190818152602001828054610d4390612a52565b8015610d905780601f10610d6557610100808354040283529160200191610d90565b820191906000526020600020905b815481529060010190602001808311610d7357829003601f168201915b5050505050905090565b600d5481565b662386f26fc1000081565b610dbd610db661119b565b838361143d565b5050565b610dcc8484846108e0565b610dd8848484846115ac565b50505050565b6060610de9826110d6565b506000610df4611763565b90506000815111610e145760405180602001604052806000815250610e3f565b80610e1e846117f5565b604051602001610e2f929190612dbb565b6040516020818303038152906040525b915050919050565b600b8054610e5490612a52565b80601f0160208091040260200160405190810160405280929190818152602001828054610e8090612a52565b8015610ecd5780601f10610ea257610100808354040283529160200191610ecd565b820191906000526020600020905b815481529060010190602001808311610eb057829003601f168201915b505050505081565b600f81565b6000600560008473ffffffffffffffffffffffffffffffffffffffff1673ffffffffffffffffffffffffffffffffffffffff16815260200190815260200160002060008373ffffffffffffffffffffffffffffffffffffffff1673ffffffffffffffffffffffffffffffffffffffff16815260200190815260200160002060009054906101000a900460ff16905092915050565b610f766111d3565b600073ffffffffffffffffffffffffffffffffffffffff168173ffffffffffffffffffffffffffffffffffffffff1603610fe85760006040517f1e4fbdf7000000000000000000000000000000000000000000000000000000008152600401610fdf9190612661565b60405180910390fd5b610ff181611377565b50565b60007f80ac58cd000000000000000000000000000000000000000000000000000000007bffffffffffffffffffffffffffffffffffffffffffffffffffffffff1916827bffffffffffffffffffffffffffffffffffffffffffffffffffffffff191614806110bf57507f5b5e139f000000000000000000000000000000000000000000000000000000007bffffffffffffffffffffffffffffffffffffffffffffffffffffffff1916827bffffffffffffffffffffffffffffffffffffffffffffffffffffffff1916145b806110cf57506110ce826118c3565b5b9050919050565b6000806110e28361192d565b9050600073ffffffffffffffffffffffffffffffffffffffff168173ffffffffffffffffffffffffffffffffffffffff160361115557826040517f7e27328900000000000000000000000000000000000000000000000000000000815260040161114c9190612750565b60405180910390fd5b80915050919050565b60006004600083815260200190815260200160002060009054906101000a900473ffffffffffffffffffffffffffffffffffffffff169050919050565b600033905090565b6111b0838383600161196a565b505050565b6111cf828260405180602001604052806000815250611b2f565b5050565b6111db61119b565b73ffffffffffffffffffffffffffffffffffffffff166111f9610cde565b73ffffffffffffffffffffffffffffffffffffffff16146112585761121c61119b565b6040517f118cdaa700000000000000000000000000000000000000000000000000000000815260040161124f9190612661565b60405180910390fd5b565b600080611268858585611b4b565b9050600073ffffffffffffffffffffffffffffffffffffffff168173ffffffffffffffffffffffffffffffffffffffff16036112ac576112a784611d65565b6112eb565b8473ffffffffffffffffffffffffffffffffffffffff168173ffffffffffffffffffffffffffffffffffffffff16146112ea576112e98185611dae565b5b5b600073ffffffffffffffffffffffffffffffffffffffff168573ffffffffffffffffffffffffffffffffffffffff160361132d5761132884611f0f565b61136c565b8473ffffffffffffffffffffffffffffffffffffffff168173ffffffffffffffffffffffffffffffffffffffff161461136b5761136a8585611fe0565b5b5b809150509392505050565b6000600a60009054906101000a900473ffffffffffffffffffffffffffffffffffffffff16905081600a60006101000a81548173ffffffffffffffffffffffffffffffffffffffff021916908373ffffffffffffffffffffffffffffffffffffffff1602179055508173ffffffffffffffffffffffffffffffffffffffff168173ffffffffffffffffffffffffffffffffffffffff167f8be0079c531659141344cd1fd0a4f28419497f9722a3daafe3b4186f6b6457e060405160405180910390a35050565b600073ffffffffffffffffffffffffffffffffffffffff168273ffffffffffffffffffffffffffffffffffffffff16036114ae57816040517f5b08ba180000000000000000000000000000000000000000000000000000000081526004016114a59190612661565b60405180910390fd5b80600560008573ffffffffffffffffffffffffffffffffffffffff1673ffffffffffffffffffffffffffffffffffffffff16815260200190815260200160002060008473ffffffffffffffffffffffffffffffffffffffff1673ffffffffffffffffffffffffffffffffffffffff16815260200190815260200160002060006101000a81548160ff0219169083151502179055508173ffffffffffffffffffffffffffffffffffffffff168373ffffffffffffffffffffffffffffffffffffffff167f17307eab39ab6107e8899845ad3d59bd9653f200f220920489ca2b5937696c318360405161159f91906124f0565b60405180910390a3505050565b60008373ffffffffffffffffffffffffffffffffffffffff163b111561175d578273ffffffffffffffffffffffffffffffffffffffff1663150b7a026115f061119b565b8685856040518563ffffffff1660e01b81526004016116129493929190612e34565b6020604051808303816000875af192505050801561164e57506040513d601f19601f8201168201806040525081019061164b9190612e95565b60015b6116d2573d806000811461167e576040519150601f19603f3d011682016040523d82523d6000602084013e611683565b606091505b5060008151036116ca57836040517f64a0ae920000000000000000000000000000000000000000000000000000000081526004016116c19190612661565b60405180910390fd5b805181602001fd5b63150b7a0260e01b7bffffffffffffffffffffffffffffffffffffffffffffffffffffffff1916817bffffffffffffffffffffffffffffffffffffffffffffffffffffffff19161461175b57836040517f64a0ae920000000000000000000000000000000000000000000000000000000081526004016117529190612661565b60405180910390fd5b505b50505050565b6060600b805461177290612a52565b80601f016020809104026020016040519081016040528092919081815260200182805461179e90612a52565b80156117eb5780601f106117c0576101008083540402835291602001916117eb565b820191906000526020600020905b8154815290600101906020018083116117ce57829003601f168201915b5050505050905090565b6060600060016118048461206b565b01905060008167ffffffffffffffff81111561182357611822612835565b5b6040519080825280601f01601f1916602001820160405280156118555781602001600182028036833780820191505090505b509050600082602001820190505b6001156118b8578080600190039150507f3031323334353637383961626364656600000000000000000000000000000000600a86061a8153600a85816118ac576118ab612ec2565b5b04945060008503611863575b819350505050919050565b60007f01ffc9a7000000000000000000000000000000000000000000000000000000007bffffffffffffffffffffffffffffffffffffffffffffffffffffffff1916827bffffffffffffffffffffffffffffffffffffffffffffffffffffffff1916149050919050565b60006002600083815260200190815260200160002060009054906101000a900473ffffffffffffffffffffffffffffffffffffffff169050919050565b80806119a35750600073ffffffffffffffffffffffffffffffffffffffff168273ffffffffffffffffffffffffffffffffffffffff1614155b15611ad75760006119b3846110d6565b9050600073ffffffffffffffffffffffffffffffffffffffff168373ffffffffffffffffffffffffffffffffffffffff1614158015611a1e57508273ffffffffffffffffffffffffffffffffffffffff168173ffffffffffffffffffffffffffffffffffffffff1614155b8015611a315750611a2f8184610eda565b155b15611a7357826040517fa9fbf51f000000000000000000000000000000000000000000000000000000008152600401611a6a9190612661565b60405180910390fd5b8115611ad557838573ffffffffffffffffffffffffffffffffffffffff168273ffffffffffffffffffffffffffffffffffffffff167f8c5be1e5ebec7d5bd14f71427d1e84f3dd0314c0f7b2291e5b200ac8c7c3b92560405160405180910390a45b505b836004600085815260200190815260200160002060006101000a81548173ffffffffffffffffffffffffffffffffffffffff021916908373ffffffffffffffffffffffffffffffffffffffff16021790555050505050565b611b3983836121be565b611b4660008484846115ac565b505050565b600080611b578461192d565b9050600073ffffffffffffffffffffffffffffffffffffffff168373ffffffffffffffffffffffffffffffffffffffff1614611b9957611b988184866122b7565b5b600073ffffffffffffffffffffffffffffffffffffffff168173ffffffffffffffffffffffffffffffffffffffff1614611c2a57611bdb60008560008061196a565b6001600360008373ffffffffffffffffffffffffffffffffffffffff1673ffffffffffffffffffffffffffffffffffffffff168152602001908152602001600020600082825403925050819055505b600073ffffffffffffffffffffffffffffffffffffffff168573ffffffffffffffffffffffffffffffffffffffff1614611cad576001600360008773ffffffffffffffffffffffffffffffffffffffff1673ffffffffffffffffffffffffffffffffffffffff168152602001908152602001600020600082825401925050819055505b846002600086815260200190815260200160002060006101000a81548173ffffffffffffffffffffffffffffffffffffffff021916908373ffffffffffffffffffffffffffffffffffffffff160217905550838573ffffffffffffffffffffffffffffffffffffffff168273ffffffffffffffffffffffffffffffffffffffff167fddf252ad1be2c89b69c2b068fc378daa952ba7f163c4a11628f55a4df523b3ef60405160405180910390a4809150509392505050565b6008805490506009600083815260200190815260200160002081905550600881908060018154018082558091505060019003906000526020600020016000909190919091505550565b6000611db983610c10565b9050600060076000848152602001908152602001600020549050818114611e9e576000600660008673ffffffffffffffffffffffffffffffffffffffff1673ffffffffffffffffffffffffffffffffffffffff168152602001908152602001600020600084815260200190815260200160002054905080600660008773ffffffffffffffffffffffffffffffffffffffff1673ffffffffffffffffffffffffffffffffffffffff168152602001908152602001600020600084815260200190815260200160002081905550816007600083815260200190815260200160002081905550505b6007600084815260200190815260200160002060009055600660008573ffffffffffffffffffffffffffffffffffffffff1673ffffffffffffffffffffffffffffffffffffffff16815260200190815260200160002060008381526020019081526020016000206000905550505050565b60006001600880549050611f239190612ef1565b9050600060096000848152602001908152602001600020549050600060088381548110611f5357611f52612d50565b5b906000526020600020015490508060088381548110611f7557611f74612d50565b5b906000526020600020018190555081600960008381526020019081526020016000208190555060096000858152602001908152602001600020600090556008805480611fc457611fc3612f25565b5b6001900381819060005260206000200160009055905550505050565b60006001611fed84610c10565b611ff79190612ef1565b905081600660008573ffffffffffffffffffffffffffffffffffffffff1673ffffffffffffffffffffffffffffffffffffffff168152602001908152602001600020600083815260200190815260200160002081905550806007600084815260200190815260200160002081905550505050565b600080600090507a184f03e93ff9f4daa797ed6e38ed64bf6a1f01000000000000000083106120c9577a184f03e93ff9f4daa797ed6e38ed64bf6a1f01000000000000000083816120bf576120be612ec2565b5b0492506040810190505b6d04ee2d6d415b85acef81000000008310612106576d04ee2d6d415b85acef810000000083816120fc576120fb612ec2565b5b0492506020810190505b662386f26fc10000831061213557662386f26fc10000838161212b5761212a612ec2565b5b0492506010810190505b6305f5e100831061215e576305f5e100838161215457612153612ec2565b5b0492506008810190505b612710831061218357612710838161217957612178612ec2565b5b0492506004810190505b606483106121a6576064838161219c5761219b612ec2565b5b0492506002810190505b600a83106121b5576001810190505b80915050919050565b600073ffffffffffffffffffffffffffffffffffffffff168273ffffffffffffffffffffffffffffffffffffffff16036122305760006040517f64a0ae920000000000000000000000000000000000000000000000000000000081526004016122279190612661565b60405180910390fd5b600061223e8383600061125a565b9050600073ffffffffffffffffffffffffffffffffffffffff168173ffffffffffffffffffffffffffffffffffffffff16146122b25760006040517f73c6ac6e0000000000000000000000000000000000000000000000000000000081526004016122a99190612661565b60405180910390fd5b505050565b6122c283838361237b565b61237657600073ffffffffffffffffffffffffffffffffffffffff168373ffffffffffffffffffffffffffffffffffffffff160361233757806040517f7e27328900000000000000000000000000000000000000000000000000000000815260040161232e9190612750565b60405180910390fd5b81816040517f177e802f00000000000000000000000000000000000000000000000000000000815260040161236d929190612c75565b60405180910390fd5b505050565b60008073ffffffffffffffffffffffffffffffffffffffff168373ffffffffffffffffffffffffffffffffffffffff161415801561243357508273ffffffffffffffffffffffffffffffffffffffff168473ffffffffffffffffffffffffffffffffffffffff1614806123f457506123f38484610eda565b5b8061243257508273ffffffffffffffffffffffffffffffffffffffff1661241a8361115e565b73ffffffffffffffffffffffffffffffffffffffff16145b5b90509392505050565b6000604051905090565b600080fd5b600080fd5b60007fffffffff0000000000000000000000000000000000000000000000000000000082169050919050565b61248581612450565b811461249057600080fd5b50565b6000813590506124a28161247c565b92915050565b6000602082840312156124be576124bd612446565b5b60006124cc84828501612493565b91505092915050565b60008115159050919050565b6124ea816124d5565b82525050565b600060208201905061250560008301846124e1565b92915050565b600081519050919050565b600082825260208201905092915050565b60005b8381101561254557808201518184015260208101905061252a565b60008484015250505050565b6000601f19601f8301169050919050565b600061256d8261250b565b6125778185612516565b9350612587818560208601612527565b61259081612551565b840191505092915050565b600060208201905081810360008301526125b58184612562565b905092915050565b6000819050919050565b6125d0816125bd565b81146125db57600080fd5b50565b6000813590506125ed816125c7565b92915050565b60006020828403121561260957612608612446565b5b6000612617848285016125de565b91505092915050565b600073ffffffffffffffffffffffffffffffffffffffff82169050919050565b600061264b82612620565b9050919050565b61265b81612640565b82525050565b60006020820190506126766000830184612652565b92915050565b61268581612640565b811461269057600080fd5b50565b6000813590506126a28161267c565b92915050565b600080604083850312156126bf576126be612446565b5b60006126cd85828601612693565b92505060206126de858286016125de565b9150509250929050565b6126f1816124d5565b81146126fc57600080fd5b50565b60008135905061270e816126e8565b92915050565b60006020828403121561272a57612729612446565b5b6000612738848285016126ff565b91505092915050565b61274a816125bd565b82525050565b60006020820190506127656000830184612741565b92915050565b60008060006060848603121561278457612783612446565b5b600061279286828701612693565b93505060206127a386828701612693565b92505060406127b4868287016125de565b9150509250925092565b6000602082840312156127d4576127d3612446565b5b60006127e284828501612693565b91505092915050565b6000806040838503121561280257612801612446565b5b600061281085828601612693565b9250506020612821858286016126ff565b9150509250929050565b600080fd5b600080fd5b7f4e487b7100000000000000000000000000000000000000000000000000000000600052604160045260246000fd5b61286d82612551565b810181811067ffffffffffffffff8211171561288c5761288b612835565b5b80604052505050565b600061289f61243c565b90506128ab8282612864565b919050565b600067ffffffffffffffff8211156128cb576128ca612835565b5b6128d482612551565b9050602081019050919050565b82818337600083830152505050565b60006129036128fe846128b0565b612895565b90508281526020810184848401111561291f5761291e612830565b5b61292a8482856128e1565b509392505050565b600082601f8301126129475761294661282b565b5b81356129578482602086016128f0565b91505092915050565b6000806000806080858703121561297a57612979612446565b5b600061298887828801612693565b945050602061299987828801612693565b93505060406129aa878288016125de565b925050606085013567ffffffffffffffff8111156129cb576129ca61244b565b5b6129d787828801612932565b91505092959194509250565b600080604083850312156129fa576129f9612446565b5b6000612a0885828601612693565b9250506020612a1985828601612693565b9150509250929050565b7f4e487b7100000000000000000000000000000000000000000000000000000000600052602260045260246000fd5b60006002820490506001821680612a6a57607f821691505b602082108103612a7d57612a7c612a23565b5b50919050565b7f436f6e74726163742063757272656e746c792070617573656400000000000000600082015250565b6000612ab9601983612516565b9150612ac482612a83565b602082019050919050565b60006020820190508181036000830152612ae881612aac565b9050919050565b7f457863656564206d6178696d756d206e756d206f66206d6f7665204e46542e00600082015250565b6000612b25601f83612516565b9150612b3082612aef565b602082019050919050565b60006020820190508181036000830152612b5481612b18565b9050919050565b7f4e6f7420656e6f75676820657468657220746f206d696e74204e465400000000600082015250565b6000612b91601c83612516565b9150612b9c82612b5b565b602082019050919050565b60006020820190508181036000830152612bc081612b84565b9050919050565b7f4e487b7100000000000000000000000000000000000000000000000000000000600052601160045260246000fd5b6000612c01826125bd565b91507fffffffffffffffffffffffffffffffffffffffffffffffffffffffffffffffff8203612c3357612c32612bc7565b5b600182019050919050565b6000606082019050612c536000830186612652565b612c606020830185612741565b612c6d6040830184612652565b949350505050565b6000604082019050612c8a6000830185612652565b612c976020830184612741565b9392505050565b600081905092915050565b50565b6000612cb9600083612c9e565b9150612cc482612ca9565b600082019050919050565b6000612cda82612cac565b9150819050919050565b7f4661696c656420746f2073656e64204574686572000000000000000000000000600082015250565b6000612d1a601483612516565b9150612d2582612ce4565b602082019050919050565b60006020820190508181036000830152612d4981612d0d565b9050919050565b7f4e487b7100000000000000000000000000000000000000000000000000000000600052603260045260246000fd5b600081905092915050565b6000612d958261250b565b612d9f8185612d7f565b9350612daf818560208601612527565b80840191505092915050565b6000612dc78285612d8a565b9150612dd38284612d8a565b91508190509392505050565b600081519050919050565b600082825260208201905092915050565b6000612e0682612ddf565b612e108185612dea565b9350612e20818560208601612527565b612e2981612551565b840191505092915050565b6000608082019050612e496000830187612652565b612e566020830186612652565b612e636040830185612741565b8181036060830152612e758184612dfb565b905095945050505050565b600081519050612e8f8161247c565b92915050565b600060208284031215612eab57612eaa612446565b5b6000612eb984828501612e80565b91505092915050565b7f4e487b7100000000000000000000000000000000000000000000000000000000600052601260045260246000fd5b6000612efc826125bd565b9150612f07836125bd565b9250828203905081811115612f1f57612f1e612bc7565b5b92915050565b7f4e487b7100000000000000000000000000000000000000000000000000000000600052603160045260246000fdfea26469706673582212200c52612028349bd9899bfb60e0194ab25832bcd4035e90d99e251b911122f30264736f6c63430008180033",
  "linkReferences": {},
  "deployedLinkReferences": {}
}