{
  "_format": "hh-sol-artifact-1",
  "contractName": "MovieNFTCollection",
  "sourceName": "contracts/MovieNFTCollection.sol",
  "abi": [
    {
      "inputs": [
        {
          "internalType": "string",
          "name": "baseURI",
          "type": "string"
        }
      ],
      "stateMutability": "nonpayable",
      "type": "constructor"
    },
    {
      "inputs": [],
      "name": "ERC721EnumerableForbiddenBatchMint",
      "type": "error"
    },
    {
      "inputs": [
        {
          "internalType": "address",
          "name": "sender",
          "type": "address"
        },
        {
          "internalType": "uint256",
          "name": "tokenId",
          "type": "uint256"
        },
        {
          "internalType": "address",
          "name": "owner",
          "type": "address"
        }
      ],
      "name": "ERC721IncorrectOwner",
      "type": "error"
    },
    {
      "inputs": [
        {
          "internalType": "address",
          "name": "operator",
          "type": "address"
        },
        {
          "internalType": "uint256",
          "name": "tokenId",
          "type": "uint256"
        }
      ],
      "name": "ERC721InsufficientApproval",
      "type": "error"
    },
    {
      "inputs": [
        {
          "internalType": "address",
          "name": "approver",
          "type": "address"
        }
      ],
      "name": "ERC721InvalidApprover",
      "type": "error"
    },
    {
      "inputs": [
        {
          "internalType": "address",
          "name": "operator",
          "type": "address"
        }
      ],
      "name": "ERC721InvalidOperator",
      "type": "error"
    },
    {
      "inputs": [
        {
          "internalType": "address",
          "name": "owner",
          "type": "address"
        }
      ],
      "name": "ERC721InvalidOwner",
      "type": "error"
    },
    {
      "inputs": [
        {
          "internalType": "address",
          "name": "receiver",
          "type": "address"
        }
      ],
      "name": "ERC721InvalidReceiver",
      "type": "error"
    },
    {
      "inputs": [
        {
          "internalType": "address",
          "name": "sender",
          "type": "address"
        }
      ],
      "name": "ERC721InvalidSender",
      "type": "error"
    },
    {
      "inputs": [
        {
          "internalType": "uint256",
          "name": "tokenId",
          "type": "uint256"
        }
      ],
      "name": "ERC721NonexistentToken",
      "type": "error"
    },
    {
      "inputs": [
        {
          "internalType": "address",
          "name": "owner",
          "type": "address"
        },
        {
          "internalType": "uint256",
          "name": "index",
          "type": "uint256"
        }
      ],
      "name": "ERC721OutOfBoundsIndex",
      "type": "error"
    },
    {
      "inputs": [
        {
          "internalType": "address",
          "name": "owner",
          "type": "address"
        }
      ],
      "name": "OwnableInvalidOwner",
      "type": "error"
    },
    {
      "inputs": [
        {
          "internalType": "address",
          "name": "account",
          "type": "address"
        }
      ],
      "name": "OwnableUnauthorizedAccount",
      "type": "error"
    },
    {
      "anonymous": false,
      "inputs": [
        {
          "indexed": true,
          "internalType": "address",
          "name": "owner",
          "type": "address"
        },
        {
          "indexed": true,
          "internalType": "address",
          "name": "approved",
          "type": "address"
        },
        {
          "indexed": true,
          "internalType": "uint256",
          "name": "tokenId",
          "type": "uint256"
        }
      ],
      "name": "Approval",
      "type": "event"
    },
    {
      "anonymous": false,
      "inputs": [
        {
          "indexed": true,
          "internalType": "address",
          "name": "owner",
          "type": "address"
        },
        {
          "indexed": true,
          "internalType": "address",
          "name": "operator",
          "type": "address"
        },
        {
          "indexed": false,
          "internalType": "bool",
          "name": "approved",
          "type": "bool"
        }
      ],
      "name": "ApprovalForAll",
      "type": "event"
    },
    {
      "anonymous": false,
      "inputs": [
        {
          "indexed": true,
          "internalType": "address",
          "name": "previousOwner",
          "type": "address"
        },
        {
          "indexed": true,
          "internalType": "address",
          "name": "newOwner",
          "type": "address"
        }
      ],
      "name": "OwnershipTransferred",
      "type": "event"
    },
    {
      "anonymous": false,
      "inputs": [
        {
          "indexed": true,
          "internalType": "address",
          "name": "from",
          "type": "address"
        },
        {
          "indexed": true,
          "internalType": "address",
          "name": "to",
          "type": "address"
        },
        {
          "indexed": true,
          "internalType": "uint256",
          "name": "tokenId",
          "type": "uint256"
        }
      ],
      "name": "Transfer",
      "type": "event"
    },
    {
      "stateMutability": "payable",
      "type": "fallback"
    },
    {
      "inputs": [
        {
          "internalType": "address",
          "name": "to",
          "type": "address"
        },
        {
          "internalType": "uint256",
          "name": "tokenId",
          "type": "uint256"
        }
      ],
      "name": "approve",
      "outputs": [],
      "stateMutability": "nonpayable",
      "type": "function"
    },
    {
      "inputs": [
        {
          "internalType": "address",
          "name": "owner",
          "type": "address"
        }
      ],
      "name": "balanceOf",
      "outputs": [
        {
          "internalType": "uint256",
          "name": "",
          "type": "uint256"
        }
      ],
      "stateMutability": "view",
      "type": "function"
    },
    {
      "inputs": [
        {
          "internalType": "uint256",
          "name": "tokenId",
          "type": "uint256"
        }
      ],
      "name": "getApproved",
      "outputs": [
        {
          "internalType": "address",
          "name": "",
          "type": "address"
        }
      ],
      "stateMutability": "view",
      "type": "function"
    },
    {
      "inputs": [
        {
          "internalType": "address",
          "name": "owner",
          "type": "address"
        },
        {
          "internalType": "address",
          "name": "operator",
          "type": "address"
        }
      ],
      "name": "isApprovedForAll",
      "outputs": [
        {
          "internalType": "bool",
          "name": "",
          "type": "bool"
        }
      ],
      "stateMutability": "view",
      "type": "function"
    },
    {
      "inputs": [],
      "name": "maxNumOfTokenId",
      "outputs": [
        {
          "internalType": "uint256",
          "name": "",
          "type": "uint256"
        }
      ],
      "stateMutability": "view",
      "type": "function"
    },
    {
      "inputs": [],
      "name": "mint",
      "outputs": [],
      "stateMutability": "payable",
      "type": "function"
    },
    {
      "inputs": [],
      "name": "name",
      "outputs": [
        {
          "internalType": "string",
          "name": "",
          "type": "string"
        }
      ],
      "stateMutability": "view",
      "type": "function"
    },
    {
      "inputs": [],
      "name": "owner",
      "outputs": [
        {
          "internalType": "address",
          "name": "",
          "type": "address"
        }
      ],
      "stateMutability": "view",
      "type": "function"
    },
    {
      "inputs": [
        {
          "internalType": "uint256",
          "name": "tokenId",
          "type": "uint256"
        }
      ],
      "name": "ownerOf",
      "outputs": [
        {
          "internalType": "address",
          "name": "",
          "type": "address"
        }
      ],
      "stateMutability": "view",
      "type": "function"
    },
    {
      "inputs": [],
      "name": "paused",
      "outputs": [
        {
          "internalType": "bool",
          "name": "",
          "type": "bool"
        }
      ],
      "stateMutability": "view",
      "type": "function"
    },
    {
      "inputs": [],
      "name": "price",
      "outputs": [
        {
          "internalType": "uint256",
          "name": "",
          "type": "uint256"
        }
      ],
      "stateMutability": "view",
      "type": "function"
    },
    {
      "inputs": [],
      "name": "renounceOwnership",
      "outputs": [],
      "stateMutability": "nonpayable",
      "type": "function"
    },
    {
      "inputs": [
        {
          "internalType": "address",
          "name": "from",
          "type": "address"
        },
        {
          "internalType": "address",
          "name": "to",
          "type": "address"
        },
        {
          "internalType": "uint256",
          "name": "tokenId",
          "type": "uint256"
        }
      ],
      "name": "safeTransferFrom",
      "outputs": [],
      "stateMutability": "nonpayable",
      "type": "function"
    },
    {
      "inputs": [
        {
          "internalType": "address",
          "name": "from",
          "type": "address"
        },
        {
          "internalType": "address",
          "name": "to",
          "type": "address"
        },
        {
          "internalType": "uint256",
          "name": "tokenId",
          "type": "uint256"
        },
        {
          "internalType": "bytes",
          "name": "data",
          "type": "bytes"
        }
      ],
      "name": "safeTransferFrom",
      "outputs": [],
      "stateMutability": "nonpayable",
      "type": "function"
    },
    {
      "inputs": [
        {
          "internalType": "address",
          "name": "operator",
          "type": "address"
        },
        {
          "internalType": "bool",
          "name": "approved",
          "type": "bool"
        }
      ],
      "name": "setApprovalForAll",
      "outputs": [],
      "stateMutability": "nonpayable",
      "type": "function"
    },
    {
      "inputs": [
        {
          "internalType": "bool",
          "name": "_val",
          "type": "bool"
        }
      ],
      "name": "setPaused",
      "outputs": [],
      "stateMutability": "nonpayable",
      "type": "function"
    },
    {
      "inputs": [
        {
          "internalType": "bytes4",
          "name": "interfaceId",
          "type": "bytes4"
        }
      ],
      "name": "supportsInterface",
      "outputs": [
        {
          "internalType": "bool",
          "name": "",
          "type": "bool"
        }
      ],
      "stateMutability": "view",
      "type": "function"
    },
    {
      "inputs": [],
      "name": "symbol",
      "outputs": [
        {
          "internalType": "string",
          "name": "",
          "type": "string"
        }
      ],
      "stateMutability": "view",
      "type": "function"
    },
    {
      "inputs": [
        {
          "internalType": "uint256",
          "name": "index",
          "type": "uint256"
        }
      ],
      "name": "tokenByIndex",
      "outputs": [
        {
          "internalType": "uint256",
          "name": "",
          "type": "uint256"
        }
      ],
      "stateMutability": "view",
      "type": "function"
    },
    {
      "inputs": [],
      "name": "tokenMinted",
      "outputs": [
        {
          "internalType": "uint256",
          "name": "",
          "type": "uint256"
        }
      ],
      "stateMutability": "view",
      "type": "function"
    },
    {
      "inputs": [
        {
          "internalType": "address",
          "name": "owner",
          "type": "address"
        },
        {
          "internalType": "uint256",
          "name": "index",
          "type": "uint256"
        }
      ],
      "name": "tokenOfOwnerByIndex",
      "outputs": [
        {
          "internalType": "uint256",
          "name": "",
          "type": "uint256"
        }
      ],
      "stateMutability": "view",
      "type": "function"
    },
    {
      "inputs": [
        {
          "internalType": "uint256",
          "name": "tokenId",
          "type": "uint256"
        }
      ],
      "name": "tokenURI",
      "outputs": [
        {
          "internalType": "string",
          "name": "",
          "type": "string"
        }
      ],
      "stateMutability": "view",
      "type": "function"
    },
    {
      "inputs": [],
      "name": "totalSupply",
      "outputs": [
        {
          "internalType": "uint256",
          "name": "",
          "type": "uint256"
        }
      ],
      "stateMutability": "view",
      "type": "function"
    },
    {
      "inputs": [
        {
          "internalType": "address",
          "name": "from",
          "type": "address"
        },
        {
          "internalType": "address",
          "name": "to",
          "type": "address"
        },
        {
          "internalType": "uint256",
          "name": "tokenId",
          "type": "uint256"
        }
      ],
      "name": "transferFrom",
      "outputs": [],
      "stateMutability": "nonpayable",
      "type": "function"
    },
    {
      "inputs": [
        {
          "internalType": "address",
          "name": "newOwner",
          "type": "address"
        }
      ],
      "name": "transferOwnership",
      "outputs": [],
      "stateMutability": "nonpayable",
      "type": "function"
    },
    {
      "inputs": [],
      "name": "withdraw",
      "outputs": [],
      "stateMutability": "nonpayable",
      "type": "function"
    },
    {
      "stateMutability": "payable",
      "type": "receive"
    }
  ],
  "bytecode": "0x60806040526000600d553480156200001657600080fd5b50604051620036733803806200367383398181016040528101906200003c9190620003c8565b336040518060400160405280601981526020017f4d6f7669654e6674436f6c6c656374696f6e427942696e6f64000000000000008152506040518060400160405280600781526020017f4d6f766965424a000000000000000000000000000000000000000000000000008152508160009081620000ba919062000664565b508060019081620000cc919062000664565b505050600073ffffffffffffffffffffffffffffffffffffffff168173ffffffffffffffffffffffffffffffffffffffff1603620001445760006040517f1e4fbdf70000000000000000000000000000000000000000000000000000000081526004016200013b919062000790565b60405180910390fd5b62000155816200016f60201b60201c565b5080600b908162000167919062000664565b5050620007ad565b6000600a60009054906101000a900473ffffffffffffffffffffffffffffffffffffffff16905081600a60006101000a81548173ffffffffffffffffffffffffffffffffffffffff021916908373ffffffffffffffffffffffffffffffffffffffff1602179055508173ffffffffffffffffffffffffffffffffffffffff168173ffffffffffffffffffffffffffffffffffffffff167f8be0079c531659141344cd1fd0a4f28419497f9722a3daafe3b4186f6b6457e060405160405180910390a35050565b6000604051905090565b600080fd5b600080fd5b600080fd5b600080fd5b6000601f19601f8301169050919050565b7f4e487b7100000000000000000000000000000000000000000000000000000000600052604160045260246000fd5b6200029e8262000253565b810181811067ffffffffffffffff82111715620002c057620002bf62000264565b5b80604052505050565b6000620002d562000235565b9050620002e3828262000293565b919050565b600067ffffffffffffffff82111562000306576200030562000264565b5b620003118262000253565b9050602081019050919050565b60005b838110156200033e57808201518184015260208101905062000321565b60008484015250505050565b6000620003616200035b84620002e8565b620002c9565b90508281526020810184848401111562000380576200037f6200024e565b5b6200038d8482856200031e565b509392505050565b600082601f830112620003ad57620003ac62000249565b5b8151620003bf8482602086016200034a565b91505092915050565b600060208284031215620003e157620003e06200023f565b5b600082015167ffffffffffffffff81111562000402576200040162000244565b5b620004108482850162000395565b91505092915050565b600081519050919050565b7f4e487b7100000000000000000000000000000000000000000000000000000000600052602260045260246000fd5b600060028204905060018216806200046c57607f821691505b60208210810362000482576200048162000424565b5b50919050565b60008190508160005260206000209050919050565b60006020601f8301049050919050565b600082821b905092915050565b600060088302620004ec7fffffffffffffffffffffffffffffffffffffffffffffffffffffffffffffffff82620004ad565b620004f88683620004ad565b95508019841693508086168417925050509392505050565b6000819050919050565b6000819050919050565b6000620005456200053f620005398462000510565b6200051a565b62000510565b9050919050565b6000819050919050565b620005618362000524565b6200057962000570826200054c565b848454620004ba565b825550505050565b600090565b6200059062000581565b6200059d81848462000556565b505050565b5b81811015620005c557620005b960008262000586565b600181019050620005a3565b5050565b601f8211156200061457620005de8162000488565b620005e9846200049d565b81016020851015620005f9578190505b6200061162000608856200049d565b830182620005a2565b50505b505050565b600082821c905092915050565b6000620006396000198460080262000619565b1980831691505092915050565b600062000654838362000626565b9150826002028217905092915050565b6200066f8262000419565b67ffffffffffffffff8111156200068b576200068a62000264565b5b62000697825462000453565b620006a4828285620005c9565b600060209050601f831160018114620006dc5760008415620006c7578287015190505b620006d3858262000646565b86555062000743565b601f198416620006ec8662000488565b60005b828110156200071657848901518255600182019150602085019450602081019050620006ef565b8683101562000736578489015162000732601f89168262000626565b8355505b6001600288020188555050505b505050505050565b600073ffffffffffffffffffffffffffffffffffffffff82169050919050565b600062000778826200074b565b9050919050565b6200078a816200076b565b82525050565b6000602082019050620007a760008301846200077f565b92915050565b612eb680620007bd6000396000f3fe6080604052600436106101855760003560e01c80636352211e116100d1578063a035b1fe1161008a578063c87b56dd11610064578063c87b56dd14610557578063dcc8154e14610594578063e985e9c5146105bf578063f2fde38b146105fc5761018c565b8063a035b1fe146104da578063a22cb46514610505578063b88d4fde1461052e5761018c565b80636352211e146103c857806370a0823114610405578063715018a6146104425780638da5cb5b1461045957806395d89b411461048457806396356355146104af5761018c565b806318160ddd1161013e5780633ccfd60b116101185780633ccfd60b1461032057806342842e0e146103375780634f6ccce7146103605780635c975abb1461039d5761018c565b806318160ddd1461028f57806323b872dd146102ba5780632f745c59146102e35761018c565b806301ffc9a71461018e57806306fdde03146101cb578063081812fc146101f6578063095ea7b3146102335780631249c58b1461025c57806316c38b3c146102665761018c565b3661018c57005b005b34801561019a57600080fd5b506101b560048036038101906101b091906123d4565b610625565b6040516101c2919061241c565b60405180910390f35b3480156101d757600080fd5b506101e061069f565b6040516101ed91906124c7565b60405180910390f35b34801561020257600080fd5b5061021d6004803603810190610218919061251f565b610731565b60405161022a919061258d565b60405180910390f35b34801561023f57600080fd5b5061025a600480360381019061025591906125d4565b61074d565b005b610264610763565b005b34801561027257600080fd5b5061028d60048036038101906102889190612640565b610868565b005b34801561029b57600080fd5b506102a461088d565b6040516102b1919061267c565b60405180910390f35b3480156102c657600080fd5b506102e160048036038101906102dc9190612697565b61089a565b005b3480156102ef57600080fd5b5061030a600480360381019061030591906125d4565b61099c565b604051610317919061267c565b60405180910390f35b34801561032c57600080fd5b50610335610a45565b005b34801561034357600080fd5b5061035e60048036038101906103599190612697565b610b0f565b005b34801561036c57600080fd5b506103876004803603810190610382919061251f565b610b2f565b604051610394919061267c565b60405180910390f35b3480156103a957600080fd5b506103b2610ba5565b6040516103bf919061241c565b60405180910390f35b3480156103d457600080fd5b506103ef60048036038101906103ea919061251f565b610bb8565b6040516103fc919061258d565b60405180910390f35b34801561041157600080fd5b5061042c600480360381019061042791906126ea565b610bca565b604051610439919061267c565b60405180910390f35b34801561044e57600080fd5b50610457610c84565b005b34801561046557600080fd5b5061046e610c98565b60405161047b919061258d565b60405180910390f35b34801561049057600080fd5b50610499610cc2565b6040516104a691906124c7565b60405180910390f35b3480156104bb57600080fd5b506104c4610d54565b6040516104d1919061267c565b60405180910390f35b3480156104e657600080fd5b506104ef610d5a565b6040516104fc919061267c565b60405180910390f35b34801561051157600080fd5b5061052c60048036038101906105279190612717565b610d65565b005b34801561053a57600080fd5b506105556004803603810190610550919061288c565b610d7b565b005b34801561056357600080fd5b5061057e6004803603810190610579919061251f565b610d98565b60405161058b91906124c7565b60405180910390f35b3480156105a057600080fd5b506105a9610e01565b6040516105b6919061267c565b60405180910390f35b3480156105cb57600080fd5b506105e660048036038101906105e1919061290f565b610e06565b6040516105f3919061241c565b60405180910390f35b34801561060857600080fd5b50610623600480360381019061061e91906126ea565b610e9a565b005b60007f780e9d63000000000000000000000000000000000000000000000000000000007bffffffffffffffffffffffffffffffffffffffffffffffffffffffff1916827bffffffffffffffffffffffffffffffffffffffffffffffffffffffff19161480610698575061069782610f20565b5b9050919050565b6060600080546106ae9061297e565b80601f01602080910402602001604051908101604052809291908181526020018280546106da9061297e565b80156107275780601f106106fc57610100808354040283529160200191610727565b820191906000526020600020905b81548152906001019060200180831161070a57829003601f168201915b5050505050905090565b600061073c82611002565b506107468261108a565b9050919050565b61075f828261075a6110c7565b6110cf565b5050565b600c60009054906101000a900460ff16156107b3576040517f08c379a00000000000000000000000000000000000000000000000000000000081526004016107aa906129fb565b60405180910390fd5b600f600d54106107f8576040517f08c379a00000000000000000000000000000000000000000000000000000000081526004016107ef90612a67565b60405180910390fd5b662386f26fc10000341015610842576040517f08c379a000000000000000000000000000000000000000000000000000000000815260040161083990612ad3565b60405180910390fd5b61084e33600d546110e1565b600d600081548092919061086190612b22565b9190505550565b6108706110ff565b80600c60006101000a81548160ff02191690831515021790555050565b6000600880549050905090565b600073ffffffffffffffffffffffffffffffffffffffff168273ffffffffffffffffffffffffffffffffffffffff160361090c5760006040517f64a0ae92000000000000000000000000000000000000000000000000000000008152600401610903919061258d565b60405180910390fd5b6000610920838361091b6110c7565b611186565b90508373ffffffffffffffffffffffffffffffffffffffff168173ffffffffffffffffffffffffffffffffffffffff1614610996578382826040517f64283d7b00000000000000000000000000000000000000000000000000000000815260040161098d93929190612b6a565b60405180910390fd5b50505050565b60006109a783610bca565b82106109ec5782826040517fa57d13dc0000000000000000000000000000000000000000000000000000000081526004016109e3929190612ba1565b60405180910390fd5b600660008473ffffffffffffffffffffffffffffffffffffffff1673ffffffffffffffffffffffffffffffffffffffff168152602001908152602001600020600083815260200190815260200160002054905092915050565b610a4d6110ff565b6000610a57610c98565b9050600047905060008273ffffffffffffffffffffffffffffffffffffffff1682604051610a8490612bfb565b60006040518083038185875af1925050503d8060008114610ac1576040519150601f19603f3d011682016040523d82523d6000602084013e610ac6565b606091505b5050905080610b0a576040517f08c379a0000000000000000000000000000000000000000000000000000000008152600401610b0190612c5c565b60405180910390fd5b505050565b610b2a83838360405180602001604052806000815250610d7b565b505050565b6000610b3961088d565b8210610b7f576000826040517fa57d13dc000000000000000000000000000000000000000000000000000000008152600401610b76929190612ba1565b60405180910390fd5b60088281548110610b9357610b92612c7c565b5b90600052602060002001549050919050565b600c60009054906101000a900460ff1681565b6000610bc382611002565b9050919050565b60008073ffffffffffffffffffffffffffffffffffffffff168273ffffffffffffffffffffffffffffffffffffffff1603610c3d5760006040517f89c62b64000000000000000000000000000000000000000000000000000000008152600401610c34919061258d565b60405180910390fd5b600360008373ffffffffffffffffffffffffffffffffffffffff1673ffffffffffffffffffffffffffffffffffffffff168152602001908152602001600020549050919050565b610c8c6110ff565b610c9660006112a3565b565b6000600a60009054906101000a900473ffffffffffffffffffffffffffffffffffffffff16905090565b606060018054610cd19061297e565b80601f0160208091040260200160405190810160405280929190818152602001828054610cfd9061297e565b8015610d4a5780601f10610d1f57610100808354040283529160200191610d4a565b820191906000526020600020905b815481529060010190602001808311610d2d57829003601f168201915b5050505050905090565b600d5481565b662386f26fc1000081565b610d77610d706110c7565b8383611369565b5050565b610d8684848461089a565b610d92848484846114d8565b50505050565b6060610da382611002565b506000610dae61168f565b90506000815111610dce5760405180602001604052806000815250610df9565b80610dd884611721565b604051602001610de9929190612ce7565b6040516020818303038152906040525b915050919050565b600f81565b6000600560008473ffffffffffffffffffffffffffffffffffffffff1673ffffffffffffffffffffffffffffffffffffffff16815260200190815260200160002060008373ffffffffffffffffffffffffffffffffffffffff1673ffffffffffffffffffffffffffffffffffffffff16815260200190815260200160002060009054906101000a900460ff16905092915050565b610ea26110ff565b600073ffffffffffffffffffffffffffffffffffffffff168173ffffffffffffffffffffffffffffffffffffffff1603610f145760006040517f1e4fbdf7000000000000000000000000000000000000000000000000000000008152600401610f0b919061258d565b60405180910390fd5b610f1d816112a3565b50565b60007f80ac58cd000000000000000000000000000000000000000000000000000000007bffffffffffffffffffffffffffffffffffffffffffffffffffffffff1916827bffffffffffffffffffffffffffffffffffffffffffffffffffffffff19161480610feb57507f5b5e139f000000000000000000000000000000000000000000000000000000007bffffffffffffffffffffffffffffffffffffffffffffffffffffffff1916827bffffffffffffffffffffffffffffffffffffffffffffffffffffffff1916145b80610ffb5750610ffa826117ef565b5b9050919050565b60008061100e83611859565b9050600073ffffffffffffffffffffffffffffffffffffffff168173ffffffffffffffffffffffffffffffffffffffff160361108157826040517f7e273289000000000000000000000000000000000000000000000000000000008152600401611078919061267c565b60405180910390fd5b80915050919050565b60006004600083815260200190815260200160002060009054906101000a900473ffffffffffffffffffffffffffffffffffffffff169050919050565b600033905090565b6110dc8383836001611896565b505050565b6110fb828260405180602001604052806000815250611a5b565b5050565b6111076110c7565b73ffffffffffffffffffffffffffffffffffffffff16611125610c98565b73ffffffffffffffffffffffffffffffffffffffff1614611184576111486110c7565b6040517f118cdaa700000000000000000000000000000000000000000000000000000000815260040161117b919061258d565b60405180910390fd5b565b600080611194858585611a77565b9050600073ffffffffffffffffffffffffffffffffffffffff168173ffffffffffffffffffffffffffffffffffffffff16036111d8576111d384611c91565b611217565b8473ffffffffffffffffffffffffffffffffffffffff168173ffffffffffffffffffffffffffffffffffffffff1614611216576112158185611cda565b5b5b600073ffffffffffffffffffffffffffffffffffffffff168573ffffffffffffffffffffffffffffffffffffffff16036112595761125484611e3b565b611298565b8473ffffffffffffffffffffffffffffffffffffffff168173ffffffffffffffffffffffffffffffffffffffff1614611297576112968585611f0c565b5b5b809150509392505050565b6000600a60009054906101000a900473ffffffffffffffffffffffffffffffffffffffff16905081600a60006101000a81548173ffffffffffffffffffffffffffffffffffffffff021916908373ffffffffffffffffffffffffffffffffffffffff1602179055508173ffffffffffffffffffffffffffffffffffffffff168173ffffffffffffffffffffffffffffffffffffffff167f8be0079c531659141344cd1fd0a4f28419497f9722a3daafe3b4186f6b6457e060405160405180910390a35050565b600073ffffffffffffffffffffffffffffffffffffffff168273ffffffffffffffffffffffffffffffffffffffff16036113da57816040517f5b08ba180000000000000000000000000000000000000000000000000000000081526004016113d1919061258d565b60405180910390fd5b80600560008573ffffffffffffffffffffffffffffffffffffffff1673ffffffffffffffffffffffffffffffffffffffff16815260200190815260200160002060008473ffffffffffffffffffffffffffffffffffffffff1673ffffffffffffffffffffffffffffffffffffffff16815260200190815260200160002060006101000a81548160ff0219169083151502179055508173ffffffffffffffffffffffffffffffffffffffff168373ffffffffffffffffffffffffffffffffffffffff167f17307eab39ab6107e8899845ad3d59bd9653f200f220920489ca2b5937696c31836040516114cb919061241c565b60405180910390a3505050565b60008373ffffffffffffffffffffffffffffffffffffffff163b1115611689578273ffffffffffffffffffffffffffffffffffffffff1663150b7a0261151c6110c7565b8685856040518563ffffffff1660e01b815260040161153e9493929190612d60565b6020604051808303816000875af192505050801561157a57506040513d601f19601f820116820180604052508101906115779190612dc1565b60015b6115fe573d80600081146115aa576040519150601f19603f3d011682016040523d82523d6000602084013e6115af565b606091505b5060008151036115f657836040517f64a0ae920000000000000000000000000000000000000000000000000000000081526004016115ed919061258d565b60405180910390fd5b805181602001fd5b63150b7a0260e01b7bffffffffffffffffffffffffffffffffffffffffffffffffffffffff1916817bffffffffffffffffffffffffffffffffffffffffffffffffffffffff19161461168757836040517f64a0ae9200000000000000000000000000000000000000000000000000000000815260040161167e919061258d565b60405180910390fd5b505b50505050565b6060600b805461169e9061297e565b80601f01602080910402602001604051908101604052809291908181526020018280546116ca9061297e565b80156117175780601f106116ec57610100808354040283529160200191611717565b820191906000526020600020905b8154815290600101906020018083116116fa57829003601f168201915b5050505050905090565b60606000600161173084611f97565b01905060008167ffffffffffffffff81111561174f5761174e612761565b5b6040519080825280601f01601f1916602001820160405280156117815781602001600182028036833780820191505090505b509050600082602001820190505b6001156117e4578080600190039150507f3031323334353637383961626364656600000000000000000000000000000000600a86061a8153600a85816117d8576117d7612dee565b5b0494506000850361178f575b819350505050919050565b60007f01ffc9a7000000000000000000000000000000000000000000000000000000007bffffffffffffffffffffffffffffffffffffffffffffffffffffffff1916827bffffffffffffffffffffffffffffffffffffffffffffffffffffffff1916149050919050565b60006002600083815260200190815260200160002060009054906101000a900473ffffffffffffffffffffffffffffffffffffffff169050919050565b80806118cf5750600073ffffffffffffffffffffffffffffffffffffffff168273ffffffffffffffffffffffffffffffffffffffff1614155b15611a035760006118df84611002565b9050600073ffffffffffffffffffffffffffffffffffffffff168373ffffffffffffffffffffffffffffffffffffffff161415801561194a57508273ffffffffffffffffffffffffffffffffffffffff168173ffffffffffffffffffffffffffffffffffffffff1614155b801561195d575061195b8184610e06565b155b1561199f57826040517fa9fbf51f000000000000000000000000000000000000000000000000000000008152600401611996919061258d565b60405180910390fd5b8115611a0157838573ffffffffffffffffffffffffffffffffffffffff168273ffffffffffffffffffffffffffffffffffffffff167f8c5be1e5ebec7d5bd14f71427d1e84f3dd0314c0f7b2291e5b200ac8c7c3b92560405160405180910390a45b505b836004600085815260200190815260200160002060006101000a81548173ffffffffffffffffffffffffffffffffffffffff021916908373ffffffffffffffffffffffffffffffffffffffff16021790555050505050565b611a6583836120ea565b611a7260008484846114d8565b505050565b600080611a8384611859565b9050600073ffffffffffffffffffffffffffffffffffffffff168373ffffffffffffffffffffffffffffffffffffffff1614611ac557611ac48184866121e3565b5b600073ffffffffffffffffffffffffffffffffffffffff168173ffffffffffffffffffffffffffffffffffffffff1614611b5657611b07600085600080611896565b6001600360008373ffffffffffffffffffffffffffffffffffffffff1673ffffffffffffffffffffffffffffffffffffffff168152602001908152602001600020600082825403925050819055505b600073ffffffffffffffffffffffffffffffffffffffff168573ffffffffffffffffffffffffffffffffffffffff1614611bd9576001600360008773ffffffffffffffffffffffffffffffffffffffff1673ffffffffffffffffffffffffffffffffffffffff168152602001908152602001600020600082825401925050819055505b846002600086815260200190815260200160002060006101000a81548173ffffffffffffffffffffffffffffffffffffffff021916908373ffffffffffffffffffffffffffffffffffffffff160217905550838573ffffffffffffffffffffffffffffffffffffffff168273ffffffffffffffffffffffffffffffffffffffff167fddf252ad1be2c89b69c2b068fc378daa952ba7f163c4a11628f55a4df523b3ef60405160405180910390a4809150509392505050565b6008805490506009600083815260200190815260200160002081905550600881908060018154018082558091505060019003906000526020600020016000909190919091505550565b6000611ce583610bca565b9050600060076000848152602001908152602001600020549050818114611dca576000600660008673ffffffffffffffffffffffffffffffffffffffff1673ffffffffffffffffffffffffffffffffffffffff168152602001908152602001600020600084815260200190815260200160002054905080600660008773ffffffffffffffffffffffffffffffffffffffff1673ffffffffffffffffffffffffffffffffffffffff168152602001908152602001600020600084815260200190815260200160002081905550816007600083815260200190815260200160002081905550505b6007600084815260200190815260200160002060009055600660008573ffffffffffffffffffffffffffffffffffffffff1673ffffffffffffffffffffffffffffffffffffffff16815260200190815260200160002060008381526020019081526020016000206000905550505050565b60006001600880549050611e4f9190612e1d565b9050600060096000848152602001908152602001600020549050600060088381548110611e7f57611e7e612c7c565b5b906000526020600020015490508060088381548110611ea157611ea0612c7c565b5b906000526020600020018190555081600960008381526020019081526020016000208190555060096000858152602001908152602001600020600090556008805480611ef057611eef612e51565b5b6001900381819060005260206000200160009055905550505050565b60006001611f1984610bca565b611f239190612e1d565b905081600660008573ffffffffffffffffffffffffffffffffffffffff1673ffffffffffffffffffffffffffffffffffffffff168152602001908152602001600020600083815260200190815260200160002081905550806007600084815260200190815260200160002081905550505050565b600080600090507a184f03e93ff9f4daa797ed6e38ed64bf6a1f0100000000000000008310611ff5577a184f03e93ff9f4daa797ed6e38ed64bf6a1f0100000000000000008381611feb57611fea612dee565b5b0492506040810190505b6d04ee2d6d415b85acef81000000008310612032576d04ee2d6d415b85acef8100000000838161202857612027612dee565b5b0492506020810190505b662386f26fc10000831061206157662386f26fc10000838161205757612056612dee565b5b0492506010810190505b6305f5e100831061208a576305f5e10083816120805761207f612dee565b5b0492506008810190505b61271083106120af5761271083816120a5576120a4612dee565b5b0492506004810190505b606483106120d257606483816120c8576120c7612dee565b5b0492506002810190505b600a83106120e1576001810190505b80915050919050565b600073ffffffffffffffffffffffffffffffffffffffff168273ffffffffffffffffffffffffffffffffffffffff160361215c5760006040517f64a0ae92000000000000000000000000000000000000000000000000000000008152600401612153919061258d565b60405180910390fd5b600061216a83836000611186565b9050600073ffffffffffffffffffffffffffffffffffffffff168173ffffffffffffffffffffffffffffffffffffffff16146121de5760006040517f73c6ac6e0000000000000000000000000000000000000000000000000000000081526004016121d5919061258d565b60405180910390fd5b505050565b6121ee8383836122a7565b6122a257600073ffffffffffffffffffffffffffffffffffffffff168373ffffffffffffffffffffffffffffffffffffffff160361226357806040517f7e27328900000000000000000000000000000000000000000000000000000000815260040161225a919061267c565b60405180910390fd5b81816040517f177e802f000000000000000000000000000000000000000000000000000000008152600401612299929190612ba1565b60405180910390fd5b505050565b60008073ffffffffffffffffffffffffffffffffffffffff168373ffffffffffffffffffffffffffffffffffffffff161415801561235f57508273ffffffffffffffffffffffffffffffffffffffff168473ffffffffffffffffffffffffffffffffffffffff161480612320575061231f8484610e06565b5b8061235e57508273ffffffffffffffffffffffffffffffffffffffff166123468361108a565b73ffffffffffffffffffffffffffffffffffffffff16145b5b90509392505050565b6000604051905090565b600080fd5b600080fd5b60007fffffffff0000000000000000000000000000000000000000000000000000000082169050919050565b6123b18161237c565b81146123bc57600080fd5b50565b6000813590506123ce816123a8565b92915050565b6000602082840312156123ea576123e9612372565b5b60006123f8848285016123bf565b91505092915050565b60008115159050919050565b61241681612401565b82525050565b6000602082019050612431600083018461240d565b92915050565b600081519050919050565b600082825260208201905092915050565b60005b83811015612471578082015181840152602081019050612456565b60008484015250505050565b6000601f19601f8301169050919050565b600061249982612437565b6124a38185612442565b93506124b3818560208601612453565b6124bc8161247d565b840191505092915050565b600060208201905081810360008301526124e1818461248e565b905092915050565b6000819050919050565b6124fc816124e9565b811461250757600080fd5b50565b600081359050612519816124f3565b92915050565b60006020828403121561253557612534612372565b5b60006125438482850161250a565b91505092915050565b600073ffffffffffffffffffffffffffffffffffffffff82169050919050565b60006125778261254c565b9050919050565b6125878161256c565b82525050565b60006020820190506125a2600083018461257e565b92915050565b6125b18161256c565b81146125bc57600080fd5b50565b6000813590506125ce816125a8565b92915050565b600080604083850312156125eb576125ea612372565b5b60006125f9858286016125bf565b925050602061260a8582860161250a565b9150509250929050565b61261d81612401565b811461262857600080fd5b50565b60008135905061263a81612614565b92915050565b60006020828403121561265657612655612372565b5b60006126648482850161262b565b91505092915050565b612676816124e9565b82525050565b6000602082019050612691600083018461266d565b92915050565b6000806000606084860312156126b0576126af612372565b5b60006126be868287016125bf565b93505060206126cf868287016125bf565b92505060406126e08682870161250a565b9150509250925092565b600060208284031215612700576126ff612372565b5b600061270e848285016125bf565b91505092915050565b6000806040838503121561272e5761272d612372565b5b600061273c858286016125bf565b925050602061274d8582860161262b565b9150509250929050565b600080fd5b600080fd5b7f4e487b7100000000000000000000000000000000000000000000000000000000600052604160045260246000fd5b6127998261247d565b810181811067ffffffffffffffff821117156127b8576127b7612761565b5b80604052505050565b60006127cb612368565b90506127d78282612790565b919050565b600067ffffffffffffffff8211156127f7576127f6612761565b5b6128008261247d565b9050602081019050919050565b82818337600083830152505050565b600061282f61282a846127dc565b6127c1565b90508281526020810184848401111561284b5761284a61275c565b5b61285684828561280d565b509392505050565b600082601f83011261287357612872612757565b5b813561288384826020860161281c565b91505092915050565b600080600080608085870312156128a6576128a5612372565b5b60006128b4878288016125bf565b94505060206128c5878288016125bf565b93505060406128d68782880161250a565b925050606085013567ffffffffffffffff8111156128f7576128f6612377565b5b6129038782880161285e565b91505092959194509250565b6000806040838503121561292657612925612372565b5b6000612934858286016125bf565b9250506020612945858286016125bf565b9150509250929050565b7f4e487b7100000000000000000000000000000000000000000000000000000000600052602260045260246000fd5b6000600282049050600182168061299657607f821691505b6020821081036129a9576129a861294f565b5b50919050565b7f436f6e74726163742063757272656e746c792070617573656400000000000000600082015250565b60006129e5601983612442565b91506129f0826129af565b602082019050919050565b60006020820190508181036000830152612a14816129d8565b9050919050565b7f457863656564206d6178696d756d206e756d206f66206d6f7665204e46542e00600082015250565b6000612a51601f83612442565b9150612a5c82612a1b565b602082019050919050565b60006020820190508181036000830152612a8081612a44565b9050919050565b7f4e6f7420656e6f75676820657468657220746f206d696e74204e465400000000600082015250565b6000612abd601c83612442565b9150612ac882612a87565b602082019050919050565b60006020820190508181036000830152612aec81612ab0565b9050919050565b7f4e487b7100000000000000000000000000000000000000000000000000000000600052601160045260246000fd5b6000612b2d826124e9565b91507fffffffffffffffffffffffffffffffffffffffffffffffffffffffffffffffff8203612b5f57612b5e612af3565b5b600182019050919050565b6000606082019050612b7f600083018661257e565b612b8c602083018561266d565b612b99604083018461257e565b949350505050565b6000604082019050612bb6600083018561257e565b612bc3602083018461266d565b9392505050565b600081905092915050565b50565b6000612be5600083612bca565b9150612bf082612bd5565b600082019050919050565b6000612c0682612bd8565b9150819050919050565b7f4661696c656420746f2073656e64204574686572000000000000000000000000600082015250565b6000612c46601483612442565b9150612c5182612c10565b602082019050919050565b60006020820190508181036000830152612c7581612c39565b9050919050565b7f4e487b7100000000000000000000000000000000000000000000000000000000600052603260045260246000fd5b600081905092915050565b6000612cc182612437565b612ccb8185612cab565b9350612cdb818560208601612453565b80840191505092915050565b6000612cf38285612cb6565b9150612cff8284612cb6565b91508190509392505050565b600081519050919050565b600082825260208201905092915050565b6000612d3282612d0b565b612d3c8185612d16565b9350612d4c818560208601612453565b612d558161247d565b840191505092915050565b6000608082019050612d75600083018761257e565b612d82602083018661257e565b612d8f604083018561266d565b8181036060830152612da18184612d27565b905095945050505050565b600081519050612dbb816123a8565b92915050565b600060208284031215612dd757612dd6612372565b5b6000612de584828501612dac565b91505092915050565b7f4e487b7100000000000000000000000000000000000000000000000000000000600052601260045260246000fd5b6000612e28826124e9565b9150612e33836124e9565b9250828203905081811115612e4b57612e4a612af3565b5b92915050565b7f4e487b7100000000000000000000000000000000000000000000000000000000600052603160045260246000fdfea26469706673582212208b3228ee9b2c85512251ff244689ee898ed39b3c466a25912b579c62802e1baa64736f6c63430008180033",
  "linkReferences": {},
  "deployedLinkReferences": {}
}